{
  "contractName": "Admin",
  "abi": [
    {
      "inputs": [],
      "stateMutability": "nonpayable",
      "type": "constructor"
    },
    {
      "anonymous": false,
      "inputs": [
        {
          "indexed": true,
          "internalType": "address",
          "name": "account",
          "type": "address"
        }
      ],
      "name": "AdminAdded",
      "type": "event"
    },
    {
      "anonymous": false,
      "inputs": [
        {
          "indexed": true,
          "internalType": "address",
          "name": "account",
          "type": "address"
        }
      ],
      "name": "AdminRemoved",
      "type": "event"
    },
    {
      "inputs": [
        {
          "internalType": "address",
          "name": "account",
          "type": "address"
        }
      ],
      "name": "isAdmin",
      "outputs": [
        {
          "internalType": "bool",
          "name": "",
          "type": "bool"
        }
      ],
      "stateMutability": "view",
      "type": "function"
    },
    {
      "inputs": [
        {
          "internalType": "address",
          "name": "account",
          "type": "address"
        }
      ],
      "name": "addAdmin",
      "outputs": [],
      "stateMutability": "nonpayable",
      "type": "function"
    },
    {
      "inputs": [
        {
          "internalType": "address",
          "name": "account",
          "type": "address"
        }
      ],
      "name": "removeAdmin",
      "outputs": [],
      "stateMutability": "nonpayable",
      "type": "function"
    }
  ],
  "bytecode": "0x608060405234801561000f575f80fd5b5060015f803373ffffffffffffffffffffffffffffffffffffffff1673ffffffffffffffffffffffffffffffffffffffff1681526020019081526020015f205f6101000a81548160ff0219169083151502179055503373ffffffffffffffffffffffffffffffffffffffff167f44d6d25963f097ad14f29f06854a01f575648a1ef82f30e562ccd3889717e33960405160405180910390a261057f806100b45f395ff3fe608060405234801561000f575f80fd5b506004361061003f575f3560e01c80631785f53c1461004357806324d7806c1461005f578063704802751461008f575b5f80fd5b61005d6004803603810190610058919061040b565b6100ab565b005b6100796004803603810190610074919061040b565b61023a565b6040516100869190610450565b60405180910390f35b6100a960048036038101906100a4919061040b565b61028b565b005b5f803373ffffffffffffffffffffffffffffffffffffffff1673ffffffffffffffffffffffffffffffffffffffff1681526020019081526020015f205f9054906101000a900460ff16610133576040517f08c379a000000000000000000000000000000000000000000000000000000000815260040161012a906104c3565b60405180910390fd5b3373ffffffffffffffffffffffffffffffffffffffff168173ffffffffffffffffffffffffffffffffffffffff16036101a1576040517f08c379a00000000000000000000000000000000000000000000000000000000081526004016101989061052b565b60405180910390fd5b5f805f8373ffffffffffffffffffffffffffffffffffffffff1673ffffffffffffffffffffffffffffffffffffffff1681526020019081526020015f205f6101000a81548160ff0219169083151502179055508073ffffffffffffffffffffffffffffffffffffffff167fa3b62bc36326052d97ea62d63c3d60308ed4c3ea8ac079dd8499f1e9c4f80c0f60405160405180910390a250565b5f805f8373ffffffffffffffffffffffffffffffffffffffff1673ffffffffffffffffffffffffffffffffffffffff1681526020019081526020015f205f9054906101000a900460ff169050919050565b5f803373ffffffffffffffffffffffffffffffffffffffff1673ffffffffffffffffffffffffffffffffffffffff1681526020019081526020015f205f9054906101000a900460ff16610313576040517f08c379a000000000000000000000000000000000000000000000000000000000815260040161030a906104c3565b60405180910390fd5b60015f808373ffffffffffffffffffffffffffffffffffffffff1673ffffffffffffffffffffffffffffffffffffffff1681526020019081526020015f205f6101000a81548160ff0219169083151502179055508073ffffffffffffffffffffffffffffffffffffffff167f44d6d25963f097ad14f29f06854a01f575648a1ef82f30e562ccd3889717e33960405160405180910390a250565b5f80fd5b5f73ffffffffffffffffffffffffffffffffffffffff82169050919050565b5f6103da826103b1565b9050919050565b6103ea816103d0565b81146103f4575f80fd5b50565b5f81359050610405816103e1565b92915050565b5f602082840312156104205761041f6103ad565b5b5f61042d848285016103f7565b91505092915050565b5f8115159050919050565b61044a81610436565b82525050565b5f6020820190506104635f830184610441565b92915050565b5f82825260208201905092915050565b7f4e6f7420616e2061646d696e00000000000000000000000000000000000000005f82015250565b5f6104ad600c83610469565b91506104b882610479565b602082019050919050565b5f6020820190508181035f8301526104da816104a1565b9050919050565b7f596f752063616e27742072656d6f766520796f757273656c66000000000000005f82015250565b5f610515601983610469565b9150610520826104e1565b602082019050919050565b5f6020820190508181035f83015261054281610509565b905091905056fea2646970667358221220ebf78af1b6a58d4bb58491df5bab0c3fa6633ef5807bc3572b7a2a280925000a64736f6c63430008150033",
  "immutableReferences": {},
  "source": "// SPDX-License-Identifier: MIT\npragma solidity ^0.8.20;\n\ncontract Admin {\n    mapping(address => bool) private admins;\n\n    event AdminAdded(address indexed account);\n    event AdminRemoved(address indexed account);\n\n    constructor() {\n        admins[msg.sender] = true; // Deployer is admin by default\n        emit AdminAdded(msg.sender);\n    }\n\n    modifier onlyAdmin() {\n        require(admins[msg.sender], \"Not an admin\");\n        _;\n    }\n\n    function isAdmin(address account) public view returns (bool) {\n        return admins[account];\n    }\n\n    function addAdmin(address account) public onlyAdmin {\n        admins[account] = true;\n        emit AdminAdded(account);\n    }\n\n    function removeAdmin(address account) public onlyAdmin {\n        require(account != msg.sender, \"You can't remove yourself\");\n        admins[account] = false;\n        emit AdminRemoved(account);\n    }\n}\n",
  "sourcePath": "C:\\Users\\akshi\\Desktop\\TruChain\\contracts\\roles\\Admin.sol",
  "compiler": {
    "name": "solc",
    "version": "0.8.21+commit.d9974bed.Emscripten.clang"
  },
  "schemaVersion": "3.4.16",
  "updatedAt": "2025-06-30T13:22:01.133Z",
  "devdoc": {
    "kind": "dev",
    "methods": {},
    "version": 1
  },
  "userdoc": {
    "kind": "user",
    "methods": {},
    "version": 1
  }
}