{
  "contractName": "Retailer",
  "abi": [
    {
      "anonymous": false,
      "inputs": [
        {
          "indexed": true,
          "internalType": "address",
          "name": "account",
          "type": "address"
        }
      ],
      "name": "AdminAdded",
      "type": "event"
    },
    {
      "anonymous": false,
      "inputs": [
        {
          "indexed": true,
          "internalType": "address",
          "name": "account",
          "type": "address"
        }
      ],
      "name": "AdminRemoved",
      "type": "event"
    },
    {
      "inputs": [
        {
          "internalType": "address",
          "name": "account",
          "type": "address"
        }
      ],
      "name": "addAdmin",
      "outputs": [],
      "stateMutability": "nonpayable",
      "type": "function"
    },
    {
      "inputs": [
        {
          "internalType": "address",
          "name": "account",
          "type": "address"
        }
      ],
      "name": "isAdmin",
      "outputs": [
        {
          "internalType": "bool",
          "name": "",
          "type": "bool"
        }
      ],
      "stateMutability": "view",
      "type": "function"
    },
    {
      "inputs": [
        {
          "internalType": "address",
          "name": "account",
          "type": "address"
        }
      ],
      "name": "removeAdmin",
      "outputs": [],
      "stateMutability": "nonpayable",
      "type": "function"
    },
    {
      "inputs": [
        {
          "internalType": "address",
          "name": "account",
          "type": "address"
        }
      ],
      "name": "addRetailer",
      "outputs": [],
      "stateMutability": "nonpayable",
      "type": "function"
    },
    {
      "inputs": [
        {
          "internalType": "address",
          "name": "account",
          "type": "address"
        }
      ],
      "name": "removeRetailer",
      "outputs": [],
      "stateMutability": "nonpayable",
      "type": "function"
    },
    {
      "inputs": [
        {
          "internalType": "address",
          "name": "account",
          "type": "address"
        }
      ],
      "name": "isRetailer",
      "outputs": [
        {
          "internalType": "bool",
          "name": "",
          "type": "bool"
        }
      ],
      "stateMutability": "view",
      "type": "function"
    }
  ],
  "bytecode": "0x608060405234801561000f575f80fd5b5060015f803373ffffffffffffffffffffffffffffffffffffffff1673ffffffffffffffffffffffffffffffffffffffff1681526020019081526020015f205f6101000a81548160ff0219169083151502179055503373ffffffffffffffffffffffffffffffffffffffff167f44d6d25963f097ad14f29f06854a01f575648a1ef82f30e562ccd3889717e33960405160405180910390a2610b10806100b45f395ff3fe608060405234801561000f575f80fd5b5060043610610060575f3560e01c80631785f53c1461006457806324d7806c146100805780635da09b88146100b057806370099ec8146100e057806370480275146100fc5780638ec4f50514610118575b5f80fd5b61007e60048036038101906100799190610864565b610134565b005b61009a60048036038101906100959190610864565b6102c3565b6040516100a791906108a9565b60405180910390f35b6100ca60048036038101906100c59190610864565b610314565b6040516100d791906108a9565b60405180910390f35b6100fa60048036038101906100f59190610864565b610330565b005b61011660048036038101906101119190610864565b6103cf565b005b610132600480360381019061012d9190610864565b6104f1565b005b5f803373ffffffffffffffffffffffffffffffffffffffff1673ffffffffffffffffffffffffffffffffffffffff1681526020019081526020015f205f9054906101000a900460ff166101bc576040517f08c379a00000000000000000000000000000000000000000000000000000000081526004016101b39061091c565b60405180910390fd5b3373ffffffffffffffffffffffffffffffffffffffff168173ffffffffffffffffffffffffffffffffffffffff160361022a576040517f08c379a000000000000000000000000000000000000000000000000000000000815260040161022190610984565b60405180910390fd5b5f805f8373ffffffffffffffffffffffffffffffffffffffff1673ffffffffffffffffffffffffffffffffffffffff1681526020019081526020015f205f6101000a81548160ff0219169083151502179055508073ffffffffffffffffffffffffffffffffffffffff167fa3b62bc36326052d97ea62d63c3d60308ed4c3ea8ac079dd8499f1e9c4f80c0f60405160405180910390a250565b5f805f8373ffffffffffffffffffffffffffffffffffffffff1673ffffffffffffffffffffffffffffffffffffffff1681526020019081526020015f205f9054906101000a900460ff169050919050565b5f61032982600161059090919063ffffffff16565b9050919050565b5f803373ffffffffffffffffffffffffffffffffffffffff1673ffffffffffffffffffffffffffffffffffffffff1681526020019081526020015f205f9054906101000a900460ff166103b8576040517f08c379a00000000000000000000000000000000000000000000000000000000081526004016103af9061091c565b60405180910390fd5b6103cc81600161065290919063ffffffff16565b50565b5f803373ffffffffffffffffffffffffffffffffffffffff1673ffffffffffffffffffffffffffffffffffffffff1681526020019081526020015f205f9054906101000a900460ff16610457576040517f08c379a000000000000000000000000000000000000000000000000000000000815260040161044e9061091c565b60405180910390fd5b60015f808373ffffffffffffffffffffffffffffffffffffffff1673ffffffffffffffffffffffffffffffffffffffff1681526020019081526020015f205f6101000a81548160ff0219169083151502179055508073ffffffffffffffffffffffffffffffffffffffff167f44d6d25963f097ad14f29f06854a01f575648a1ef82f30e562ccd3889717e33960405160405180910390a250565b5f803373ffffffffffffffffffffffffffffffffffffffff1673ffffffffffffffffffffffffffffffffffffffff1681526020019081526020015f205f9054906101000a900460ff16610579576040517f08c379a00000000000000000000000000000000000000000000000000000000081526004016105709061091c565b60405180910390fd5b61058d8160016106f490919063ffffffff16565b50565b5f8073ffffffffffffffffffffffffffffffffffffffff168273ffffffffffffffffffffffffffffffffffffffff16036105ff576040517f08c379a00000000000000000000000000000000000000000000000000000000081526004016105f6906109ec565b60405180910390fd5b825f015f8373ffffffffffffffffffffffffffffffffffffffff1673ffffffffffffffffffffffffffffffffffffffff1681526020019081526020015f205f9054906101000a900460ff16905092915050565b61065c8282610590565b61069b576040517f08c379a000000000000000000000000000000000000000000000000000000000815260040161069290610a54565b60405180910390fd5b5f825f015f8373ffffffffffffffffffffffffffffffffffffffff1673ffffffffffffffffffffffffffffffffffffffff1681526020019081526020015f205f6101000a81548160ff0219169083151502179055505050565b5f73ffffffffffffffffffffffffffffffffffffffff168173ffffffffffffffffffffffffffffffffffffffff1603610762576040517f08c379a0000000000000000000000000000000000000000000000000000000008152600401610759906109ec565b60405180910390fd5b61076c8282610590565b156107ac576040517f08c379a00000000000000000000000000000000000000000000000000000000081526004016107a390610abc565b60405180910390fd5b6001825f015f8373ffffffffffffffffffffffffffffffffffffffff1673ffffffffffffffffffffffffffffffffffffffff1681526020019081526020015f205f6101000a81548160ff0219169083151502179055505050565b5f80fd5b5f73ffffffffffffffffffffffffffffffffffffffff82169050919050565b5f6108338261080a565b9050919050565b61084381610829565b811461084d575f80fd5b50565b5f8135905061085e8161083a565b92915050565b5f6020828403121561087957610878610806565b5b5f61088684828501610850565b91505092915050565b5f8115159050919050565b6108a38161088f565b82525050565b5f6020820190506108bc5f83018461089a565b92915050565b5f82825260208201905092915050565b7f4e6f7420616e2061646d696e00000000000000000000000000000000000000005f82015250565b5f610906600c836108c2565b9150610911826108d2565b602082019050919050565b5f6020820190508181035f830152610933816108fa565b9050919050565b7f596f752063616e27742072656d6f766520796f757273656c66000000000000005f82015250565b5f61096e6019836108c2565b91506109798261093a565b602082019050919050565b5f6020820190508181035f83015261099b81610962565b9050919050565b7f496e76616c6964206164647265737300000000000000000000000000000000005f82015250565b5f6109d6600f836108c2565b91506109e1826109a2565b602082019050919050565b5f6020820190508181035f830152610a03816109ca565b9050919050565b7f4163636f756e7420646f65736e2774206861766520726f6c65000000000000005f82015250565b5f610a3e6019836108c2565b9150610a4982610a0a565b602082019050919050565b5f6020820190508181035f830152610a6b81610a32565b9050919050565b7f4163636f756e7420616c72656164792068617320726f6c6500000000000000005f82015250565b5f610aa66018836108c2565b9150610ab182610a72565b602082019050919050565b5f6020820190508181035f830152610ad381610a9a565b905091905056fea26469706673582212201caa9ea3979b7e12dbd42ba7275e97a05c505c0c0d195018b0614a8d76dce0af64736f6c63430008150033",
  "immutableReferences": {},
  "source": "// SPDX-License-Identifier: MIT\npragma solidity ^0.8.20;\n\nimport \"./Roles.sol\";\nimport \"./Admin.sol\";\n\ncontract Retailer is Admin {\n    using Roles for Roles.Role;\n    Roles.Role private _retailers;\n\n    modifier onlyRetailer() {\n        require(isRetailer(msg.sender), \"Not a retailer\");\n        _;\n    }\n\n    function addRetailer(address account) public onlyAdmin {\n        _retailers.add(account);\n    }\n\n    function removeRetailer(address account) public onlyAdmin {\n        _retailers.remove(account);\n    }\n\n    function isRetailer(address account) public view returns (bool) {\n        return _retailers.has(account);\n    }\n}\n",
  "sourcePath": "C:\\Users\\akshi\\Desktop\\TruChain\\contracts\\roles\\Retailer.sol",
  "compiler": {
    "name": "solc",
    "version": "0.8.21+commit.d9974bed.Emscripten.clang"
  },
  "schemaVersion": "3.4.16",
  "updatedAt": "2025-07-15T12:14:54.880Z",
  "devdoc": {
    "kind": "dev",
    "methods": {},
    "version": 1
  },
  "userdoc": {
    "kind": "user",
    "methods": {},
    "version": 1
  }
}