{
  "contractName": "SupplyChain",
  "abi": [
    {
      "inputs": [],
      "stateMutability": "nonpayable",
      "type": "constructor"
    },
    {
      "anonymous": false,
      "inputs": [
        {
          "indexed": true,
          "internalType": "address",
          "name": "account",
          "type": "address"
        }
      ],
      "name": "AdminAdded",
      "type": "event"
    },
    {
      "anonymous": false,
      "inputs": [
        {
          "indexed": true,
          "internalType": "address",
          "name": "account",
          "type": "address"
        }
      ],
      "name": "AdminRemoved",
      "type": "event"
    },
    {
      "anonymous": false,
      "inputs": [
        {
          "indexed": false,
          "internalType": "uint256",
          "name": "id",
          "type": "uint256"
        },
        {
          "indexed": false,
          "internalType": "string",
          "name": "name",
          "type": "string"
        },
        {
          "indexed": false,
          "internalType": "address",
          "name": "manufacturer",
          "type": "address"
        }
      ],
      "name": "ProductAdded",
      "type": "event"
    },
    {
      "anonymous": false,
      "inputs": [
        {
          "indexed": false,
          "internalType": "uint256",
          "name": "id",
          "type": "uint256"
        },
        {
          "indexed": false,
          "internalType": "address",
          "name": "consumer",
          "type": "address"
        }
      ],
      "name": "ProductPurchased",
      "type": "event"
    },
    {
      "anonymous": false,
      "inputs": [
        {
          "indexed": false,
          "internalType": "uint256",
          "name": "id",
          "type": "uint256"
        },
        {
          "indexed": false,
          "internalType": "address",
          "name": "distributor",
          "type": "address"
        }
      ],
      "name": "ProductShipped",
      "type": "event"
    },
    {
      "anonymous": false,
      "inputs": [
        {
          "indexed": false,
          "internalType": "uint256",
          "name": "id",
          "type": "uint256"
        },
        {
          "indexed": false,
          "internalType": "address",
          "name": "retailer",
          "type": "address"
        }
      ],
      "name": "ProductStocked",
      "type": "event"
    },
    {
      "inputs": [
        {
          "internalType": "address",
          "name": "account",
          "type": "address"
        }
      ],
      "name": "addAdmin",
      "outputs": [],
      "stateMutability": "nonpayable",
      "type": "function"
    },
    {
      "inputs": [
        {
          "internalType": "address",
          "name": "account",
          "type": "address"
        }
      ],
      "name": "addConsumer",
      "outputs": [],
      "stateMutability": "nonpayable",
      "type": "function"
    },
    {
      "inputs": [
        {
          "internalType": "address",
          "name": "account",
          "type": "address"
        }
      ],
      "name": "addDistributor",
      "outputs": [],
      "stateMutability": "nonpayable",
      "type": "function"
    },
    {
      "inputs": [
        {
          "internalType": "address",
          "name": "account",
          "type": "address"
        }
      ],
      "name": "addManufacturer",
      "outputs": [],
      "stateMutability": "nonpayable",
      "type": "function"
    },
    {
      "inputs": [
        {
          "internalType": "address",
          "name": "account",
          "type": "address"
        }
      ],
      "name": "addRetailer",
      "outputs": [],
      "stateMutability": "nonpayable",
      "type": "function"
    },
    {
      "inputs": [
        {
          "internalType": "address",
          "name": "account",
          "type": "address"
        }
      ],
      "name": "isAdmin",
      "outputs": [
        {
          "internalType": "bool",
          "name": "",
          "type": "bool"
        }
      ],
      "stateMutability": "view",
      "type": "function"
    },
    {
      "inputs": [
        {
          "internalType": "address",
          "name": "account",
          "type": "address"
        }
      ],
      "name": "isConsumer",
      "outputs": [
        {
          "internalType": "bool",
          "name": "",
          "type": "bool"
        }
      ],
      "stateMutability": "view",
      "type": "function"
    },
    {
      "inputs": [
        {
          "internalType": "address",
          "name": "account",
          "type": "address"
        }
      ],
      "name": "isDistributor",
      "outputs": [
        {
          "internalType": "bool",
          "name": "",
          "type": "bool"
        }
      ],
      "stateMutability": "view",
      "type": "function"
    },
    {
      "inputs": [
        {
          "internalType": "address",
          "name": "account",
          "type": "address"
        }
      ],
      "name": "isManufacturer",
      "outputs": [
        {
          "internalType": "bool",
          "name": "",
          "type": "bool"
        }
      ],
      "stateMutability": "view",
      "type": "function"
    },
    {
      "inputs": [
        {
          "internalType": "address",
          "name": "account",
          "type": "address"
        }
      ],
      "name": "isRetailer",
      "outputs": [
        {
          "internalType": "bool",
          "name": "",
          "type": "bool"
        }
      ],
      "stateMutability": "view",
      "type": "function"
    },
    {
      "inputs": [],
      "name": "productCounter",
      "outputs": [
        {
          "internalType": "uint256",
          "name": "",
          "type": "uint256"
        }
      ],
      "stateMutability": "view",
      "type": "function"
    },
    {
      "inputs": [
        {
          "internalType": "uint256",
          "name": "",
          "type": "uint256"
        }
      ],
      "name": "products",
      "outputs": [
        {
          "internalType": "uint256",
          "name": "id",
          "type": "uint256"
        },
        {
          "internalType": "string",
          "name": "name",
          "type": "string"
        },
        {
          "internalType": "enum SupplyChain.State",
          "name": "state",
          "type": "uint8"
        }
      ],
      "stateMutability": "view",
      "type": "function"
    },
    {
      "inputs": [
        {
          "internalType": "address",
          "name": "account",
          "type": "address"
        }
      ],
      "name": "removeAdmin",
      "outputs": [],
      "stateMutability": "nonpayable",
      "type": "function"
    },
    {
      "inputs": [
        {
          "internalType": "address",
          "name": "account",
          "type": "address"
        }
      ],
      "name": "removeConsumer",
      "outputs": [],
      "stateMutability": "nonpayable",
      "type": "function"
    },
    {
      "inputs": [
        {
          "internalType": "address",
          "name": "account",
          "type": "address"
        }
      ],
      "name": "removeDistributor",
      "outputs": [],
      "stateMutability": "nonpayable",
      "type": "function"
    },
    {
      "inputs": [
        {
          "internalType": "address",
          "name": "account",
          "type": "address"
        }
      ],
      "name": "removeManufacturer",
      "outputs": [],
      "stateMutability": "nonpayable",
      "type": "function"
    },
    {
      "inputs": [
        {
          "internalType": "address",
          "name": "account",
          "type": "address"
        }
      ],
      "name": "removeRetailer",
      "outputs": [],
      "stateMutability": "nonpayable",
      "type": "function"
    },
    {
      "inputs": [
        {
          "internalType": "string",
          "name": "_name",
          "type": "string"
        }
      ],
      "name": "addProduct",
      "outputs": [],
      "stateMutability": "nonpayable",
      "type": "function"
    },
    {
      "inputs": [
        {
          "internalType": "uint256",
          "name": "_id",
          "type": "uint256"
        }
      ],
      "name": "shipProduct",
      "outputs": [],
      "stateMutability": "nonpayable",
      "type": "function"
    },
    {
      "inputs": [
        {
          "internalType": "uint256",
          "name": "_id",
          "type": "uint256"
        }
      ],
      "name": "stockProduct",
      "outputs": [],
      "stateMutability": "nonpayable",
      "type": "function"
    },
    {
      "inputs": [
        {
          "internalType": "uint256",
          "name": "_id",
          "type": "uint256"
        }
      ],
      "name": "purchaseProduct",
      "outputs": [],
      "stateMutability": "nonpayable",
      "type": "function"
    },
    {
      "inputs": [
        {
          "internalType": "uint256",
          "name": "_id",
          "type": "uint256"
        }
      ],
      "name": "getProduct",
      "outputs": [
        {
          "internalType": "uint256",
          "name": "id",
          "type": "uint256"
        },
        {
          "internalType": "string",
          "name": "name",
          "type": "string"
        },
        {
          "internalType": "enum SupplyChain.State",
          "name": "state",
          "type": "uint8"
        },
        {
          "internalType": "address[]",
          "name": "manufacturers",
          "type": "address[]"
        },
        {
          "internalType": "address[]",
          "name": "distributors",
          "type": "address[]"
        },
        {
          "internalType": "address[]",
          "name": "retailers",
          "type": "address[]"
        },
        {
          "internalType": "address[]",
          "name": "consumers",
          "type": "address[]"
        }
      ],
      "stateMutability": "view",
      "type": "function"
    }
  ],
  "bytecode": "0x608060405234801562000010575f80fd5b5060015f803373ffffffffffffffffffffffffffffffffffffffff1673ffffffffffffffffffffffffffffffffffffffff1681526020019081526020015f205f6101000a81548160ff0219169083151502179055503373ffffffffffffffffffffffffffffffffffffffff167f44d6d25963f097ad14f29f06854a01f575648a1ef82f30e562ccd3889717e33960405160405180910390a2620000be336001620000c460201b90919060201c565b62000395565b5f73ffffffffffffffffffffffffffffffffffffffff168173ffffffffffffffffffffffffffffffffffffffff160362000135576040517f08c379a00000000000000000000000000000000000000000000000000000000081526004016200012c9062000307565b60405180910390fd5b620001478282620001e460201b60201c565b156200018a576040517f08c379a0000000000000000000000000000000000000000000000000000000008152600401620001819062000375565b60405180910390fd5b6001825f015f8373ffffffffffffffffffffffffffffffffffffffff1673ffffffffffffffffffffffffffffffffffffffff1681526020019081526020015f205f6101000a81548160ff0219169083151502179055505050565b5f8073ffffffffffffffffffffffffffffffffffffffff168273ffffffffffffffffffffffffffffffffffffffff160362000256576040517f08c379a00000000000000000000000000000000000000000000000000000000081526004016200024d9062000307565b60405180910390fd5b825f015f8373ffffffffffffffffffffffffffffffffffffffff1673ffffffffffffffffffffffffffffffffffffffff1681526020019081526020015f205f9054906101000a900460ff16905092915050565b5f82825260208201905092915050565b7f496e76616c6964206164647265737300000000000000000000000000000000005f82015250565b5f620002ef600f83620002a9565b9150620002fc82620002b9565b602082019050919050565b5f6020820190508181035f8301526200032081620002e1565b9050919050565b7f4163636f756e7420616c72656164792068617320726f6c6500000000000000005f82015250565b5f6200035d601883620002a9565b91506200036a8262000327565b602082019050919050565b5f6020820190508181035f8301526200038e816200034f565b9050919050565b612a7580620003a35f395ff3fe608060405234801561000f575f80fd5b5060043610610140575f3560e01c80636a75323f116100b6578063834ff7391161007a578063834ff739146103585780638ec4f505146103885780638f0c86fa146103a4578063b9db15b4146103d4578063dfe00c511461040a578063f79261041461042657610140565b80636a75323f146102b657806370099ec8146102d257806370480275146102ee5780637250e2241461030a5780637acc0b201461032657610140565b806324d7806c1161010857806324d7806c146101e65780632927d1d91461021657806338e76a031461023257806357c1f9e21461024e5780635da09b881461026a5780635f8a5afa1461029a57610140565b80630e27e3df14610144578063112940f9146101605780631785f53c1461017c57806317d4a491146101985780631f16653b146101c8575b5f80fd5b61015e60048036038101906101599190611cac565b610442565b005b61017a60048036038101906101759190611cac565b6104e1565b005b61019660048036038101906101919190611cac565b610580565b005b6101b260048036038101906101ad9190611cac565b61070f565b6040516101bf9190611cf1565b60405180910390f35b6101d061072b565b6040516101dd9190611d22565b60405180910390f35b61020060048036038101906101fb9190611cac565b610731565b60405161020d9190611cf1565b60405180910390f35b610230600480360381019061022b9190611d65565b610782565b005b61024c60048036038101906102479190611d65565b61093a565b005b61026860048036038101906102639190611cac565b610af3565b005b610284600480360381019061027f9190611cac565b610b92565b6040516102919190611cf1565b60405180910390f35b6102b460048036038101906102af9190611cac565b610bae565b005b6102d060048036038101906102cb9190611cac565b610c4d565b005b6102ec60048036038101906102e79190611cac565b610cec565b005b61030860048036038101906103039190611cac565b610d8b565b005b610324600480360381019061031f9190611cac565b610ead565b005b610340600480360381019061033b9190611d65565b610f4c565b60405161034f93929190611e8d565b60405180910390f35b610372600480360381019061036d9190611cac565b611004565b60405161037f9190611cf1565b60405180910390f35b6103a2600480360381019061039d9190611cac565b611020565b005b6103be60048036038101906103b99190611cac565b6110bf565b6040516103cb9190611cf1565b60405180910390f35b6103ee60048036038101906103e99190611d65565b6110db565b6040516104019796959493929190611f80565b60405180910390f35b610424600480360381019061041f919061213c565b61143f565b005b610440600480360381019061043b9190611d65565b611770565b005b5f803373ffffffffffffffffffffffffffffffffffffffff1673ffffffffffffffffffffffffffffffffffffffff1681526020019081526020015f205f9054906101000a900460ff166104ca576040517f08c379a00000000000000000000000000000000000000000000000000000000081526004016104c1906121cd565b60405180910390fd5b6104de81600461192990919063ffffffff16565b50565b5f803373ffffffffffffffffffffffffffffffffffffffff1673ffffffffffffffffffffffffffffffffffffffff1681526020019081526020015f205f9054906101000a900460ff16610569576040517f08c379a0000000000000000000000000000000000000000000000000000000008152600401610560906121cd565b60405180910390fd5b61057d8160046119cb90919063ffffffff16565b50565b5f803373ffffffffffffffffffffffffffffffffffffffff1673ffffffffffffffffffffffffffffffffffffffff1681526020019081526020015f205f9054906101000a900460ff16610608576040517f08c379a00000000000000000000000000000000000000000000000000000000081526004016105ff906121cd565b60405180910390fd5b3373ffffffffffffffffffffffffffffffffffffffff168173ffffffffffffffffffffffffffffffffffffffff1603610676576040517f08c379a000000000000000000000000000000000000000000000000000000000815260040161066d90612235565b60405180910390fd5b5f805f8373ffffffffffffffffffffffffffffffffffffffff1673ffffffffffffffffffffffffffffffffffffffff1681526020019081526020015f205f6101000a81548160ff0219169083151502179055508073ffffffffffffffffffffffffffffffffffffffff167fa3b62bc36326052d97ea62d63c3d60308ed4c3ea8ac079dd8499f1e9c4f80c0f60405160405180910390a250565b5f610724826001611add90919063ffffffff16565b9050919050565b60055481565b5f805f8373ffffffffffffffffffffffffffffffffffffffff1673ffffffffffffffffffffffffffffffffffffffff1681526020019081526020015f205f9054906101000a900460ff169050919050565b61078b336110bf565b6107ca576040517f08c379a00000000000000000000000000000000000000000000000000000000081526004016107c19061229d565b60405180910390fd5b5f60038111156107dd576107dc611e1a565b5b60065f8381526020019081526020015f206006015f9054906101000a900460ff1660038111156108105761080f611e1a565b5b14610850576040517f08c379a000000000000000000000000000000000000000000000000000000000815260040161084790612305565b60405180910390fd5b60065f8281526020019081526020015f2060030133908060018154018082558091505060019003905f5260205f20015f9091909190916101000a81548173ffffffffffffffffffffffffffffffffffffffff021916908373ffffffffffffffffffffffffffffffffffffffff160217905550600160065f8381526020019081526020015f206006015f6101000a81548160ff021916908360038111156108f9576108f8611e1a565b5b02179055507f8e4a7d4c074e0429c8218617269577bebe92d664dba0a99330d36a7460b5a624813360405161092f929190612332565b60405180910390a150565b61094333611004565b610982576040517f08c379a0000000000000000000000000000000000000000000000000000000008152600401610979906123a3565b60405180910390fd5b6002600381111561099657610995611e1a565b5b60065f8381526020019081526020015f206006015f9054906101000a900460ff1660038111156109c9576109c8611e1a565b5b14610a09576040517f08c379a0000000000000000000000000000000000000000000000000000000008152600401610a009061240b565b60405180910390fd5b60065f8281526020019081526020015f2060050133908060018154018082558091505060019003905f5260205f20015f9091909190916101000a81548173ffffffffffffffffffffffffffffffffffffffff021916908373ffffffffffffffffffffffffffffffffffffffff160217905550600360065f8381526020019081526020015f206006015f6101000a81548160ff02191690836003811115610ab257610ab1611e1a565b5b02179055507f9ad4ecfaf27ea0cbeebee0ed92fe15c8a84975f1e3d45ccfc526d7751dcf98ff8133604051610ae8929190612332565b60405180910390a150565b5f803373ffffffffffffffffffffffffffffffffffffffff1673ffffffffffffffffffffffffffffffffffffffff1681526020019081526020015f205f9054906101000a900460ff16610b7b576040517f08c379a0000000000000000000000000000000000000000000000000000000008152600401610b72906121cd565b60405180910390fd5b610b8f81600261192990919063ffffffff16565b50565b5f610ba7826003611add90919063ffffffff16565b9050919050565b5f803373ffffffffffffffffffffffffffffffffffffffff1673ffffffffffffffffffffffffffffffffffffffff1681526020019081526020015f205f9054906101000a900460ff16610c36576040517f08c379a0000000000000000000000000000000000000000000000000000000008152600401610c2d906121cd565b60405180910390fd5b610c4a8160016119cb90919063ffffffff16565b50565b5f803373ffffffffffffffffffffffffffffffffffffffff1673ffffffffffffffffffffffffffffffffffffffff1681526020019081526020015f205f9054906101000a900460ff16610cd5576040517f08c379a0000000000000000000000000000000000000000000000000000000008152600401610ccc906121cd565b60405180910390fd5b610ce981600161192990919063ffffffff16565b50565b5f803373ffffffffffffffffffffffffffffffffffffffff1673ffffffffffffffffffffffffffffffffffffffff1681526020019081526020015f205f9054906101000a900460ff16610d74576040517f08c379a0000000000000000000000000000000000000000000000000000000008152600401610d6b906121cd565b60405180910390fd5b610d8881600361192990919063ffffffff16565b50565b5f803373ffffffffffffffffffffffffffffffffffffffff1673ffffffffffffffffffffffffffffffffffffffff1681526020019081526020015f205f9054906101000a900460ff16610e13576040517f08c379a0000000000000000000000000000000000000000000000000000000008152600401610e0a906121cd565b60405180910390fd5b60015f808373ffffffffffffffffffffffffffffffffffffffff1673ffffffffffffffffffffffffffffffffffffffff1681526020019081526020015f205f6101000a81548160ff0219169083151502179055508073ffffffffffffffffffffffffffffffffffffffff167f44d6d25963f097ad14f29f06854a01f575648a1ef82f30e562ccd3889717e33960405160405180910390a250565b5f803373ffffffffffffffffffffffffffffffffffffffff1673ffffffffffffffffffffffffffffffffffffffff1681526020019081526020015f205f9054906101000a900460ff16610f35576040517f08c379a0000000000000000000000000000000000000000000000000000000008152600401610f2c906121cd565b60405180910390fd5b610f498160026119cb90919063ffffffff16565b50565b6006602052805f5260405f205f91509050805f015490806001018054610f7190612456565b80601f0160208091040260200160405190810160405280929190818152602001828054610f9d90612456565b8015610fe85780601f10610fbf57610100808354040283529160200191610fe8565b820191905f5260205f20905b815481529060010190602001808311610fcb57829003601f168201915b505050505090806006015f9054906101000a900460ff16905083565b5f611019826004611add90919063ffffffff16565b9050919050565b5f803373ffffffffffffffffffffffffffffffffffffffff1673ffffffffffffffffffffffffffffffffffffffff1681526020019081526020015f205f9054906101000a900460ff166110a8576040517f08c379a000000000000000000000000000000000000000000000000000000000815260040161109f906121cd565b60405180910390fd5b6110bc8160036119cb90919063ffffffff16565b50565b5f6110d4826002611add90919063ffffffff16565b9050919050565b5f60605f6060806060805f60065f8a81526020019081526020015f206040518060e00160405290815f820154815260200160018201805461111b90612456565b80601f016020809104026020016040519081016040528092919081815260200182805461114790612456565b80156111925780601f1061116957610100808354040283529160200191611192565b820191905f5260205f20905b81548152906001019060200180831161117557829003601f168201915b505050505081526020016002820180548060200260200160405190810160405280929190818152602001828054801561121d57602002820191905f5260205f20905b815f9054906101000a900473ffffffffffffffffffffffffffffffffffffffff1673ffffffffffffffffffffffffffffffffffffffff16815260200190600101908083116111d4575b50505050508152602001600382018054806020026020016040519081016040528092919081815260200182805480156112a857602002820191905f5260205f20905b815f9054906101000a900473ffffffffffffffffffffffffffffffffffffffff1673ffffffffffffffffffffffffffffffffffffffff168152602001906001019080831161125f575b505050505081526020016004820180548060200260200160405190810160405280929190818152602001828054801561133357602002820191905f5260205f20905b815f9054906101000a900473ffffffffffffffffffffffffffffffffffffffff1673ffffffffffffffffffffffffffffffffffffffff16815260200190600101908083116112ea575b50505050508152602001600582018054806020026020016040519081016040528092919081815260200182805480156113be57602002820191905f5260205f20905b815f9054906101000a900473ffffffffffffffffffffffffffffffffffffffff1673ffffffffffffffffffffffffffffffffffffffff1681526020019060010190808311611375575b50505050508152602001600682015f9054906101000a900460ff1660038111156113eb576113ea611e1a565b5b60038111156113fd576113fc611e1a565b5b815250509050805f015181602001518260c001518360400151846060015185608001518660a00151975097509750975097509750975050919395979092949650565b6114483361070f565b611487576040517f08c379a000000000000000000000000000000000000000000000000000000000815260040161147e906124d0565b60405180910390fd5b60055f8154809291906114999061251b565b91905055505f600167ffffffffffffffff8111156114ba576114b9612018565b5b6040519080825280602002602001820160405280156114e85781602001602082028036833780820191505090505b50905033815f815181106114ff576114fe612562565b5b602002602001019073ffffffffffffffffffffffffffffffffffffffff16908173ffffffffffffffffffffffffffffffffffffffff16815250506040518060e0016040528060055481526020018381526020018281526020015f67ffffffffffffffff81111561157257611571612018565b5b6040519080825280602002602001820160405280156115a05781602001602082028036833780820191505090505b5081526020015f67ffffffffffffffff8111156115c0576115bf612018565b5b6040519080825280602002602001820160405280156115ee5781602001602082028036833780820191505090505b5081526020015f67ffffffffffffffff81111561160e5761160d612018565b5b60405190808252806020026020018201604052801561163c5781602001602082028036833780820191505090505b5081526020015f600381111561165557611654611e1a565b5b81525060065f60055481526020019081526020015f205f820151815f01556020820151816001019081611688919061272c565b5060408201518160020190805190602001906116a5929190611b9f565b5060608201518160030190805190602001906116c2929190611b9f565b5060808201518160040190805190602001906116df929190611b9f565b5060a08201518160050190805190602001906116fc929190611b9f565b5060c0820151816006015f6101000a81548160ff0219169083600381111561172757611726611e1a565b5b02179055509050507f8193aac6f424277fc758106db15a98f50eaf850bfd0b9178fbfa308e153b04956005548333604051611764939291906127fb565b60405180910390a15050565b61177933610b92565b6117b8576040517f08c379a00000000000000000000000000000000000000000000000000000000081526004016117af90612881565b60405180910390fd5b600160038111156117cc576117cb611e1a565b5b60065f8381526020019081526020015f206006015f9054906101000a900460ff1660038111156117ff576117fe611e1a565b5b1461183f576040517f08c379a0000000000000000000000000000000000000000000000000000000008152600401611836906128e9565b60405180910390fd5b60065f8281526020019081526020015f2060040133908060018154018082558091505060019003905f5260205f20015f9091909190916101000a81548173ffffffffffffffffffffffffffffffffffffffff021916908373ffffffffffffffffffffffffffffffffffffffff160217905550600260065f8381526020019081526020015f206006015f6101000a81548160ff021916908360038111156118e8576118e7611e1a565b5b02179055507f59e93ab96a871c050331d48130d6629092affca0723b3bd9d319084ad5c27cba813360405161191e929190612332565b60405180910390a150565b6119338282611add565b611972576040517f08c379a000000000000000000000000000000000000000000000000000000000815260040161196990612951565b60405180910390fd5b5f825f015f8373ffffffffffffffffffffffffffffffffffffffff1673ffffffffffffffffffffffffffffffffffffffff1681526020019081526020015f205f6101000a81548160ff0219169083151502179055505050565b5f73ffffffffffffffffffffffffffffffffffffffff168173ffffffffffffffffffffffffffffffffffffffff1603611a39576040517f08c379a0000000000000000000000000000000000000000000000000000000008152600401611a30906129b9565b60405180910390fd5b611a438282611add565b15611a83576040517f08c379a0000000000000000000000000000000000000000000000000000000008152600401611a7a90612a21565b60405180910390fd5b6001825f015f8373ffffffffffffffffffffffffffffffffffffffff1673ffffffffffffffffffffffffffffffffffffffff1681526020019081526020015f205f6101000a81548160ff0219169083151502179055505050565b5f8073ffffffffffffffffffffffffffffffffffffffff168273ffffffffffffffffffffffffffffffffffffffff1603611b4c576040517f08c379a0000000000000000000000000000000000000000000000000000000008152600401611b43906129b9565b60405180910390fd5b825f015f8373ffffffffffffffffffffffffffffffffffffffff1673ffffffffffffffffffffffffffffffffffffffff1681526020019081526020015f205f9054906101000a900460ff16905092915050565b828054828255905f5260205f20908101928215611c15579160200282015b82811115611c14578251825f6101000a81548173ffffffffffffffffffffffffffffffffffffffff021916908373ffffffffffffffffffffffffffffffffffffffff16021790555091602001919060010190611bbd565b5b509050611c229190611c26565b5090565b5b80821115611c3d575f815f905550600101611c27565b5090565b5f604051905090565b5f80fd5b5f80fd5b5f73ffffffffffffffffffffffffffffffffffffffff82169050919050565b5f611c7b82611c52565b9050919050565b611c8b81611c71565b8114611c95575f80fd5b50565b5f81359050611ca681611c82565b92915050565b5f60208284031215611cc157611cc0611c4a565b5b5f611cce84828501611c98565b91505092915050565b5f8115159050919050565b611ceb81611cd7565b82525050565b5f602082019050611d045f830184611ce2565b92915050565b5f819050919050565b611d1c81611d0a565b82525050565b5f602082019050611d355f830184611d13565b92915050565b611d4481611d0a565b8114611d4e575f80fd5b50565b5f81359050611d5f81611d3b565b92915050565b5f60208284031215611d7a57611d79611c4a565b5b5f611d8784828501611d51565b91505092915050565b5f81519050919050565b5f82825260208201905092915050565b5f5b83811015611dc7578082015181840152602081019050611dac565b5f8484015250505050565b5f601f19601f8301169050919050565b5f611dec82611d90565b611df68185611d9a565b9350611e06818560208601611daa565b611e0f81611dd2565b840191505092915050565b7f4e487b71000000000000000000000000000000000000000000000000000000005f52602160045260245ffd5b60048110611e5857611e57611e1a565b5b50565b5f819050611e6882611e47565b919050565b5f611e7782611e5b565b9050919050565b611e8781611e6d565b82525050565b5f606082019050611ea05f830186611d13565b8181036020830152611eb28185611de2565b9050611ec16040830184611e7e565b949350505050565b5f81519050919050565b5f82825260208201905092915050565b5f819050602082019050919050565b611efb81611c71565b82525050565b5f611f0c8383611ef2565b60208301905092915050565b5f602082019050919050565b5f611f2e82611ec9565b611f388185611ed3565b9350611f4383611ee3565b805f5b83811015611f73578151611f5a8882611f01565b9750611f6583611f18565b925050600181019050611f46565b5085935050505092915050565b5f60e082019050611f935f83018a611d13565b8181036020830152611fa58189611de2565b9050611fb46040830188611e7e565b8181036060830152611fc68187611f24565b90508181036080830152611fda8186611f24565b905081810360a0830152611fee8185611f24565b905081810360c08301526120028184611f24565b905098975050505050505050565b5f80fd5b5f80fd5b7f4e487b71000000000000000000000000000000000000000000000000000000005f52604160045260245ffd5b61204e82611dd2565b810181811067ffffffffffffffff8211171561206d5761206c612018565b5b80604052505050565b5f61207f611c41565b905061208b8282612045565b919050565b5f67ffffffffffffffff8211156120aa576120a9612018565b5b6120b382611dd2565b9050602081019050919050565b828183375f83830152505050565b5f6120e06120db84612090565b612076565b9050828152602081018484840111156120fc576120fb612014565b5b6121078482856120c0565b509392505050565b5f82601f83011261212357612122612010565b5b81356121338482602086016120ce565b91505092915050565b5f6020828403121561215157612150611c4a565b5b5f82013567ffffffffffffffff81111561216e5761216d611c4e565b5b61217a8482850161210f565b91505092915050565b7f4e6f7420616e2061646d696e00000000000000000000000000000000000000005f82015250565b5f6121b7600c83611d9a565b91506121c282612183565b602082019050919050565b5f6020820190508181035f8301526121e4816121ab565b9050919050565b7f596f752063616e27742072656d6f766520796f757273656c66000000000000005f82015250565b5f61221f601983611d9a565b915061222a826121eb565b602082019050919050565b5f6020820190508181035f83015261224c81612213565b9050919050565b7f4e6f742061206469737472696275746f720000000000000000000000000000005f82015250565b5f612287601183611d9a565b915061229282612253565b602082019050919050565b5f6020820190508181035f8301526122b48161227b565b9050919050565b7f50726f64756374206e6f7420696e2043726561746564207374617465000000005f82015250565b5f6122ef601c83611d9a565b91506122fa826122bb565b602082019050919050565b5f6020820190508181035f83015261231c816122e3565b9050919050565b61232c81611c71565b82525050565b5f6040820190506123455f830185611d13565b6123526020830184612323565b9392505050565b7f4e6f74206120636f6e73756d65720000000000000000000000000000000000005f82015250565b5f61238d600e83611d9a565b915061239882612359565b602082019050919050565b5f6020820190508181035f8301526123ba81612381565b9050919050565b7f50726f64756374206e6f7420696e2053746f636b6564207374617465000000005f82015250565b5f6123f5601c83611d9a565b9150612400826123c1565b602082019050919050565b5f6020820190508181035f830152612422816123e9565b9050919050565b7f4e487b71000000000000000000000000000000000000000000000000000000005f52602260045260245ffd5b5f600282049050600182168061246d57607f821691505b6020821081036124805761247f612429565b5b50919050565b7f4e6f742061206d616e75666163747572657200000000000000000000000000005f82015250565b5f6124ba601283611d9a565b91506124c582612486565b602082019050919050565b5f6020820190508181035f8301526124e7816124ae565b9050919050565b7f4e487b71000000000000000000000000000000000000000000000000000000005f52601160045260245ffd5b5f61252582611d0a565b91507fffffffffffffffffffffffffffffffffffffffffffffffffffffffffffffffff8203612557576125566124ee565b5b600182019050919050565b7f4e487b71000000000000000000000000000000000000000000000000000000005f52603260045260245ffd5b5f819050815f5260205f209050919050565b5f6020601f8301049050919050565b5f82821b905092915050565b5f600883026125eb7fffffffffffffffffffffffffffffffffffffffffffffffffffffffffffffffff826125b0565b6125f586836125b0565b95508019841693508086168417925050509392505050565b5f819050919050565b5f61263061262b61262684611d0a565b61260d565b611d0a565b9050919050565b5f819050919050565b61264983612616565b61265d61265582612637565b8484546125bc565b825550505050565b5f90565b612671612665565b61267c818484612640565b505050565b5b8181101561269f576126945f82612669565b600181019050612682565b5050565b601f8211156126e4576126b58161258f565b6126be846125a1565b810160208510156126cd578190505b6126e16126d9856125a1565b830182612681565b50505b505050565b5f82821c905092915050565b5f6127045f19846008026126e9565b1980831691505092915050565b5f61271c83836126f5565b9150826002028217905092915050565b61273582611d90565b67ffffffffffffffff81111561274e5761274d612018565b5b6127588254612456565b6127638282856126a3565b5f60209050601f831160018114612794575f8415612782578287015190505b61278c8582612711565b8655506127f3565b601f1984166127a28661258f565b5f5b828110156127c9578489015182556001820191506020850194506020810190506127a4565b868310156127e657848901516127e2601f8916826126f5565b8355505b6001600288020188555050505b505050505050565b5f60608201905061280e5f830186611d13565b81810360208301526128208185611de2565b905061282f6040830184612323565b949350505050565b7f4e6f7420612072657461696c65720000000000000000000000000000000000005f82015250565b5f61286b600e83611d9a565b915061287682612837565b602082019050919050565b5f6020820190508181035f8301526128988161285f565b9050919050565b7f50726f64756374206e6f7420696e2053686970706564207374617465000000005f82015250565b5f6128d3601c83611d9a565b91506128de8261289f565b602082019050919050565b5f6020820190508181035f830152612900816128c7565b9050919050565b7f4163636f756e7420646f65736e2774206861766520726f6c65000000000000005f82015250565b5f61293b601983611d9a565b915061294682612907565b602082019050919050565b5f6020820190508181035f8301526129688161292f565b9050919050565b7f496e76616c6964206164647265737300000000000000000000000000000000005f82015250565b5f6129a3600f83611d9a565b91506129ae8261296f565b602082019050919050565b5f6020820190508181035f8301526129d081612997565b9050919050565b7f4163636f756e7420616c72656164792068617320726f6c6500000000000000005f82015250565b5f612a0b601883611d9a565b9150612a16826129d7565b602082019050919050565b5f6020820190508181035f830152612a38816129ff565b905091905056fea26469706673582212202c3fad3d1f6c4cc167104d9b8c343d850108cae155f5f5627ee1e985ad9b846364736f6c63430008150033",
  "immutableReferences": {},
  "source": "// SPDX-License-Identifier: MIT\npragma solidity ^0.8.20;\n\nimport \"./roles/Manufacturer.sol\";\nimport \"./roles/Distributor.sol\";\nimport \"./roles/Retailer.sol\";\nimport \"./roles/Consumer.sol\";\n\ncontract SupplyChain is Manufacturer, Distributor, Retailer, Consumer {\n    enum State { Created, Shipped, Stocked, Purchased }\n\n    struct Product {\n        uint256 id;\n        string name;\n        address[] manufacturers;\n        address[] distributors;\n        address[] retailers;\n        address[] consumers;\n        State state;\n    }\n\n    uint256 public productCounter;\n    mapping(uint256 => Product) public products;\n\n    event ProductAdded(uint256 id, string name, address manufacturer);\n    event ProductShipped(uint256 id, address distributor);\n    event ProductStocked(uint256 id, address retailer);\n    event ProductPurchased(uint256 id, address consumer);\n\n    constructor() {\n        // Admin.sol constructor sets the deployer as default admin\n    }\n\n    function addProduct(string memory _name) public onlyManufacturer {\n        productCounter++;\n\n        address[] memory manufacturersArray = new address[](1); // Declare and initialize the array\n        manufacturersArray[0] = msg.sender; // Assign the current manufacturer\n\n        products[productCounter] = Product({\n            id: productCounter,\n            name: _name,\n            manufacturers: manufacturersArray, // Use the declared array\n            distributors: new address[](0), // Initialize empty arrays\n            retailers: new address[](0),\n            consumers: new address[](0),\n            state: State.Created\n        });\n\n        emit ProductAdded(productCounter, _name, msg.sender);\n    }\n\n    function shipProduct(uint256 _id) public onlyDistributor {\n        require(products[_id].state == State.Created, \"Product not in Created state\");\n\n        products[_id].distributors.push(msg.sender);\n        products[_id].state = State.Shipped;\n\n        emit ProductShipped(_id, msg.sender);\n    }\n\n    function stockProduct(uint256 _id) public onlyRetailer {\n        require(products[_id].state == State.Shipped, \"Product not in Shipped state\");\n\n        products[_id].retailers.push(msg.sender);\n        products[_id].state = State.Stocked;\n\n        emit ProductStocked(_id, msg.sender);\n    }\n\n    function purchaseProduct(uint256 _id) public onlyConsumer {\n        require(products[_id].state == State.Stocked, \"Product not in Stocked state\");\n\n        products[_id].consumers.push(msg.sender);\n        products[_id].state = State.Purchased;\n\n        emit ProductPurchased(_id, msg.sender);\n    }\n\n    function getProduct(uint256 _id) public view returns (\n        uint256 id,\n        string memory name,\n        State state,\n        address[] memory manufacturers,\n        address[] memory distributors,\n        address[] memory retailers,\n        address[] memory consumers\n    ) {\n        Product memory p = products[_id];\n        return (\n            p.id,\n            p.name,\n            p.state,\n            p.manufacturers,\n            p.distributors,\n            p.retailers,\n            p.consumers\n        );\n    }\n}\n",
  "sourcePath": "C:\\Users\\akshi\\Desktop\\TruChain\\contracts\\SupplyChain.sol",
  "compiler": {
    "name": "solc",
    "version": "0.8.21+commit.d9974bed.Emscripten.clang"
  },
  "schemaVersion": "3.4.16",
  "updatedAt": "2025-07-15T12:14:54.866Z",
  "devdoc": {
    "kind": "dev",
    "methods": {},
    "version": 1
  },
  "userdoc": {
    "kind": "user",
    "methods": {},
    "version": 1
  }
}